:020000040000FA
:10000000A80D0020150100002F01000031010000A3
:1000100000000000000000000000000000000000E0
:10002000000000000000000000000000330100009C
:100030000000000000000000350100003701000052
:10004000390100003901000039010000C10500003C
:100050001D06000000000000D10200003901000070
:1000600039010000390100003901000039010000A8
:100070003901000039010000390100003901000098
:100080003901000059050000390100003901000064
:10009000F3060000390100003901000039010000B9
:1000A00039010000390100000000000000000000DC
:1000B0000000000000000000000000000000000040
:1000C0000348854600F0C6F8004800478518000040
:1000D000A80D0020401E00BF00BF00BF00BF00BF32
:1000E00000BF00BF00BF00BF00BF00BF00BFF1D115
:1000F00070470000401E00BF00BF00BF00BF00BF30
:1001000000BF00BF00BF00BF00BF00BF00BFF1D1F4
:10011000704700000321094802680A43026008484A
:1001200002680A4302600748804707480047FEE725
:10013000FEE7FEE7FEE7FEE7FEE7000024050040DD
:1001400054050040FD060000C100000030B50B461C
:10015000014600202022012409E00D46D5409D42A1
:1001600005D31D469540491B254695404019154627
:10017000521E002DF1DC30BDD2B201E00270401CF5
:10018000491EFBD270470022F6E710B513460A4617
:1001900004461946FFF7F0FF204610BD421C0178C7
:1001A000401C0029FBD1801A7047420005D0420054
:1001B000120E52428A4201DB00207047C90508181E
:1001C000704710B500229623114600F009F810BDC3
:1001D000002904DA401C490001D140084000704762
:1001E00070B40024050C05D11024000402D10029AC
:1001F00021D01124050E01D100020834050F01D1D0
:100200000001241D850F01D18000A41C002801DB02
:100210004000641C002908D020252E1B0D46F54007
:10022000A14000D001212943084301061B1B000AFD
:10023000DB1D02D5002070BC7047DB051818801844
:100240000029F8DA401C4900F5D170BC4008400094
:1002500070470000064C0125064E05E0E36807CC18
:100260002B430C3C98471034B442F7D3FFF72CFFD4
:10027000203400004034000070B58C180578401C14
:100280006B075B0F01D10378401C2A1106D102785D
:10029000401C03E006780E70401C491C5B1EF9D11F
:1002A0002B0705D40023521E0DD40B70491CFAE70E
:1002B0000378401CCB1A921C03E01D780D70491C7A
:1002C0005B1C521EF9D5A142D8D3002070BD00009E
:1002D000F8B50024FF25013501262746009428465D
:1002E00001F044FE002808D034484068304204D071
:1002F000334800212818344301602D1D76007F1CEF
:10030000ADB2042FEBD3FF207D3001F02FFE00288B
:1003100007D02C4800210160400704432A480069A7
:1003200000902A4F200712D00126002526420AD02D
:100330002748AA00111808690969C004C00E89037A
:10034000BA58890F904776006D1C042DEED3002C0F
:1003500030DA00241D4E0021301940304156491C2E
:1003600025D00778BD06AD0E284600F05DFE800062
:100370003658002E1BD0BF090121A940154AA800FC
:1003800080180068009A8003800F114202D0022872
:1003900002D00CE003280AD1032F05D102280AD08D
:1003A0000221284601F0B2FD39462846B047641CB8
:1003B000042CCFD3F8BD0321F3E700000063004015
:1003C000006000407C61004000050050C404002033
:1003D000006500400007005070B51348134942788B
:1003E0004A708078087000F0BFFE00F0C1FD00F098
:1003F000CFFD00F0ADFD01F005F90F2001F022FA6C
:1004000005460F2002F014F8040209482C438442E8
:1004100001D0002070BD01F05DF801F017F801F087
:10042000B5F8204670BD00005C050020500000209B
:100430003D6800008307FF22DB0E9A408907090E02
:10044000994000280BDA0007000F08388308084895
:100450009B001818C36993430B43C361704783081B
:1004600004489B001B1818689043084318607047A5
:1004700000ED00E000E400E010B5002001F04AFECD
:10048000344C0120207100206071014601F03CFED7
:10049000607801F033FDA07801F030FDA07801F024
:1004A0002DFDA07801F05AFD052001F0C1FAA078D9
:1004B00001F03CFD0A2001F0BBFAA07801F04EFDEE
:1004C000AE2000F0E7FDD52000F0E4FD802000F034
:1004D000E1FDA82000F0DEFD2F2000F0DBFDD320A1
:1004E00000F0D8FD002000F0D5FD402000F0D2FD46
:1004F0008D2000F0CFFD142000F0CCFDA62000F0F0
:10050000C9FDA42000F0C6FDA12000F0C3FDC82055
:1005100000F0C0FDDA2000F0BDFD122000F0BAFDB1
:10052000812000F0B7FD8F2000F0B4FDD92000F04D
:10053000B1FDF12000F0AEFDDB2000F0ABFD40206E
:1005400000F0A8FDAF2000F0A5FD012000F084FD23
:1005500010BD00009C00002010B506490020086076
:1005600048608860C860034940390860486001F00D
:1005700091FE10BD401101401FB50E496C460FC9D8
:100580000FC401216846017004214170002181706F
:100590000848094A6946103801F066FB0549074AD0
:1005A00010391160002803D00C2000F071FBFEE729
:1005B0001FBD00008024000079210000AC00002055
:1005C00010B50249024801F02FF810BD0C050020BB
:1005D000003000401FB50E496C460FC90FC40D21F5
:1005E000684601700C2141700A2181700848094A4F
:1005F0006946183801F038FB0549074A1839116077
:10060000002803D00C2000F043FBFEE71FBD0000D4
:1006100090240000792100006800002010B50249F4
:10062000024801F001F810BD240500200040004000
:1006300008B501236A4600F003F86846007808BD53
:10064000F8B5054688060F49800E097880301E46A9
:1006500017468D4203D1012E01D9402108430121C3
:10066000094AA940D16000F011F8002404E00020FC
:1006700000F00CF83855641CB442F8DB284601F051
:1006800065FCF8BD50000020000500500EB569461D
:100690000871012002460090044802AB01A980695C
:1006A00001F074FB6946087A0EBD0000500000207E
:1006B00070B5154604460120064AA040D060880661
:1006C000800EFFF7E3FF2846FFF7E0FF204601F02A
:1006D0003DFC70BD0005005070B50D460646002477
:1006E00004E0305D01F07EFE641CE4B2AC42F8D35D
:1006F00070BD10B501F064FD10BD000010B500F034
:10070000A9FF002805D00E490C484860C8130D49C0
:1007100088610D48018CC9B201290ED1818C09076D
:100720000BD1018D0906090F042906D1808D000621
:10073000000F02D105490120886010BDDFFF07C00E
:1007400000050040006C0040C00F00F000060040B3
:100750000FB410B504A9074B02AA039800F028F8BB
:10076000044602A9002000F0CBF8204610BC08BCCB
:1007700004B018470109000030B47446641E25789F
:10078000641CAB4200D21D46635D5B00E31830BCC5
:10079000184702E008C8121F08C1002AFAD17047A2
:1007A0007047002001E001C1121F002AFBD17047F1
:1007B000FFB58DB00446002506E025280AD0109A22
:1007C0000F999047641C6D1C20780028F5D12846AD
:1007D00011B0F0BD00270121484A009700E007430F
:1007E000641C23780846203B98401042F7D12078BB
:1007F0002E2817D1042007436078641C2A280CD1C6
:100800000E98641C02C800910E900BE000990A2219
:10081000514330394018641C00902078014630392B
:100820000929F3D920780028D1D0642808D0692874
:1008300006D075281ED0109A0F9990476D1C5BE06A
:100840000A200E99019001C90E91002802DA404257
:100850002D2102E0390504D52B216A4611720121B0
:1008600003E0F90704D02021F7E70BAE0B910DE070
:100870000021FAE70A200E99019001C90E91F7E7CD
:100880000199FFF763FC3031761E31700028F7D1F3
:1008900003A8801B20300190780701D5009801E063
:1008A000012000900199884201DD401A00E00020FB
:1008B0000027009006E002A8109AC05D0F999047AB
:1008C0006D1C7F1C0B988742F5DB04E0109A3020EA
:1008D0000F9990476D1C0099481E00900029F5DC87
:1008E00005E03078109A761C0F9990476D1C01999D
:1008F000481E01900029F4DC641C65E7092801000A
:100900000A68531C0B60107070470000044842686E
:100910000121C9050B46934383600A40C2607047BA
:100920000005005070B50024064D06E06968E0003F
:10093000085C012101F0BAF8641C28788442F5D3E0
:10094000002070BD1C000020F8B515460C46064678
:10095000052A01D20720F8BD01F07EF9002803D155
:1009600001F050F90028F6D1104900204E600C70BB
:10097000C8608D6008610E4D0DE0E0006968801967
:10098000009181786A46517000780A4A694601F000
:10099000DDF80028DFD12046641EE4B20028ECD147
:1009A000054A0021024800F00DF8F8BD1C000020A7
:1009B000FC240000FD130000E91100000C2000F0F1
:1009C00067F9FEE7094B9B68002B07D0002A07D088
:1009D000002805D00068037C002B03D00820704756
:1009E00007207047417442610020704730000020AA
:1009F000FFB59007002581B014460E46002832D17D
:100A00001B4F002C31D001F051FB0498786103207A
:100A1000387033461821224600204B43BC601834FE
:100A2000C10089180D704D708E704C601C19401CEF
:100A30000328F5DBFD607D7001240E48BD702405A0
:100A4000046003211420FFF7F5FC0B4804600B4CF5
:100A50000198A06003211120FFF7ECFC6068386169
:100A6000002005B0F0BD0720FBE7BD60FBE70000FC
:100A70003000002080E200E000E100E000150140CD
:100A8000FEB50D461B4917468968044600292AD041
:100A9000002C28D0052D01D20720FEBD606900285A
:100AA00021D0607C012820D0002601F05DFCC00030
:100AB0001049019089684018694601F07FFC0028C0
:100AC00015D0012101700C49446049680830E2C02A
:100AD000084901988968411868460078487001F013
:100AE000B1FB0020FEBD0820FEBD2E46DDE7042040
:100AF000FEBD00003000002000150140F8B5134D88
:100B00000446A96800291CD0002C1AD0606900286E
:100B100017D00026267401F027FCC700A868694694
:100B2000381801F04BFC00280DD002210170446000
:100B3000A868391868460078487001F083FB304691
:100B4000F8BD0820F8BD0420F8BD000030000020EA
:100B5000F8B507460024234802E0641C042C1AD28E
:100B6000A2008258BA42F8D1042C14D21D481E4E5D
:100B70000C38002929D001290ED002290BD16000A0
:100B8000201880194578002D05D0184801690029E2
:100B900001D028468847F8BD61006118755C8E1940
:100BA000717800290CD011490A22496880685143A4
:100BB0000E4A521CFFF764FF002801D10B48477012
:100BC0000A48B17814300155DDE78068FFF796FFD9
:100BD00006486100611814308919005D8D78A842BB
:100BE000D1D0F8BDAC2400009804002004000020FF
:100BF00010B5114901208861104900224A6082071E
:100C0000906048680028FCD000230D4A0321184654
:100C1000FFF7EEFE002803D00C2000F039F8FEE7C5
:100C200000220849012000F041F8002803D00C20E0
:100C300000F02EF8FEE710BD000500400001004066
:100C400044020020CD0C000070B50023042811D20E
:100C5000440004190D4D012A02D101290DD00022B2
:100C600046008019094E801900290CD0012906D0B0
:100C7000022906D00723184670BD0D30C2B22A558E
:100C8000F9E74270F7E78270F5E70000980400206A
:100C900010B5054A0146127A0020D20702D0084654
:100CA00000F054F810BD00000400002070B50E469E
:100CB000204905464E608D6000200A61A9071ED5B7
:100CC0000024012211462046FFF7BEFF641C042CBD
:100CD00002D20028F5D012E0002810D172080421B9
:100CE0001548FFF731FE002809D1FFF71BFE002849
:100CF00005D11148114A00211438FFF763FEE907B6
:100D000006D00F220E4952058A600023CB608A610B
:100D100000280DD108480B4A00211C38FFF752FE6D
:100D2000002805D10448084A01211838FFF74AFE77
:100D300070BD000004000020BC240000450F00002E
:100D4000000500509D1600000D090000FEB57A4D0B
:100D50000722EB6892059A4302936B6800939C000C
:100D600006461B1900200121019349050746734CD3
:100D70003300FFF701FD180D1515374755677C88BF
:100D80007F8891DE9E9E9E9E9EC8CED1D8DEDE14C8
:100D90000F21029A49059143A160E7602F70FEBDC3
:100DA000A260E76060680F2252055040800209D5BA
:100DB000A160E760022E02D1E120C0000AE07D20A0
:100DC000400107E0E160A760022E01D1C82001E0E8
:100DD000FF2091302E706421FFF7B8F9009941434C
:100DE00000223FE0A260E76060680F225205504099
:100DF000800204D5A160E76019204001EAE7E160C4
:100E0000A760E3E7A260E76060680F2252055040E8
:100E1000800202D5A160E760D1E7E160A760D7E773
:100E2000A260E76060680F2252055040800202D540
:100E3000A160E76001E0E160A7602E7000984100CA
:100E400000220FE0A260E76060680F225205504068
:100E5000800202D5A160E76001E0E160A7602E702A
:100E60000099002236480068FFF70AFEFEBDA26026
:100E7000E7601BE061680120800502468A43A260AA
:100E80000140E16010E06068012189050A46824363
:100E9000A2600840E060E3E76068012189050A4636
:100EA0008243A2600840E0600199C9E7E160A76061
:100EB0002DE023484068FFF721FE11218A1B01D055
:100EC000002807D00F22E96852051140A160E760B1
:100ED000EF60FEBD0121C905E960012A0CD9104669
:100EE000C82148436421FFF731F969680022414372
:100EF00013484068FFF7C4FD0F22E968520511400E
:100F0000E160A760FEBD0F214905A160E7602E707A
:100F1000FEBD07229205AAE70D214905A160E76001
:100F200001218905C2E70321C905A160E760891095
:100F3000BCE70F214905B9E7040000200005005077
:100F4000A024000010B500780221FFF701FE10BDBB
:100F500010B50548C07DFFF734F90E21C943FFF7EE
:100F600024F90249086210BD5C05002050000020F1
:100F700010B50548C088FFF724F90E21C943FFF7D3
:100F800014F90249C86110BD5C0500205000002022
:100F90000A480B49027808463C38042A08D0082A37
:100FA00008D00C2A08D0102A01D1C96841627047C4
:100FB0000968FBE74968F9E78968F7E77C050020DD
:100FC0008C0000200022D243830004490428CA5028
:100FD00002D308182030027770470000C4040020B4
:100FE000F0B50025ED43002A02D00023042601E0DD
:100FF000042308260B4C04E09F00E7597F1C04D013
:101000005B1CB342F8D32846F0BD26185DB22036EB
:1010100035709E00A151002AF5D1E11820310877E2
:10102000F1E70000C40400200249091820200856F6
:1010300070470000C404002030B5002307E0C45C02
:10104000CD5CAC4201D0002030BD5B1C9BB2934212
:10105000F5D3012030BD000070B5012805D0FF2177
:1010600081310B48FFF78FF870BD0024E0B201F02A
:101070006DF8002001F03CF80025002000F09EF8FB
:101080006D1C802DF9DB641C082CEFDB70BD0000AB
:10109000C000002070B5094C0546E07800280BD14F
:1010A000607800F043FF207800F040FF284601F010
:1010B00053F8207800F052FF70BD00009C00002023
:1010C000F8B52348C16800293ED00E6821494C6814
:1010D0000769C078E11B0D022D0AED1C002814D110
:1010E00001201D4A000450601B4A403A50601B49D1
:1010F000400008601A4908601A49012008602F2042
:10110000FEF7F8FF12490120C870B54200D23546FB
:10111000E81900020F4B000A403318600D4A51686D
:10112000001B091B0902090A0002000AC91C8142AE
:1011300009D9506818602F20FEF7DCFF012007490D
:10114000400480390860F8BD00F0B0FFF8BD000031
:1011500030000020001501404013014080E200E013
:1011600000E100E0001001401348C188F52909D0D2
:101170000A46FF3AF53A05D07D221201914201D08C
:10118000F521C180C17D022907D0042905D0082995
:1011900003D0102901D00221C175074920310878F8
:1011A000042807D0082805D00C2803D0102801D027
:1011B00004200870704700005C05002070B5094CE1
:1011C0000546E07800280BD1607800F0C7FE207853
:1011D00000F0ACFE284600F0BFFF207800F0BEFE15
:1011E00070BD00009C000020F8B500260124154DBC
:1011F00023E06968F0004718387821462A69814061
:10120000114218D08A432A6100F0F2FC3A78214654
:10121000EB68914019400346934099420BD179788D
:10122000012901D0012100E000217B684140002B11
:1012300001D010469847761CF6B228788642D8D35B
:10124000F8BD00001C000020F8B50B4F002420461C
:1012500000F07CFF002000F04BFF0025A601701974
:10126000385CFFF7ABFF6D1CEDB2402DF7D3641C6B
:10127000E4B2062CEBD3F8BDC0000020FFB54E4809
:101280008BB0417A8A4240D3837ACB185B1E93425B
:101290003BDB511AC9B20291C179CC080194012CEF
:1012A00037D800242CE08C4201D1002709E0007AD5
:1012B0008200414814308258029848431118A01DFA
:1012C0000F5C0B980025001946B2F80706D00C9861
:1012D000149B401941B230460E9A08E00E9800283F
:1012E00015D000220C98149B401941B2304600F0F2
:1012F0005FFE6D1C7F08EDB2082DE6D3641CE4B2DE
:101300002D4881794A1C9442CDD30FB0F0BD012203
:10131000E8E729488179C0890E460546FEF716FFA1
:1013200001460298FEF712FF68436043714340187C
:1013300080B20027039038E0002530E0017AC089B0
:101340008A001D49784314318958002409180398EC
:10135000401908188679F8000A900B98401940B295
:101360000990F0070C9807D001190A98149B0818E7
:1013700041B20E9A099809E001190A98081841B279
:101380000E98002815D00022149B099800F010FE3A
:10139000641C7608E4B2082CE3D36D1CEDB2064859
:1013A00081798D42CAD37F1CFFB201988742C3D393
:1013B000ABE70122E8E700009C00002010B50E49D1
:1013C00000234A788C78A24212D0521CD2B24A70C2
:1013D000022A00D14B704A78074B920018339A5872
:1013E0000260086910180002000A0861012010BD9F
:1013F0000360002010BD000030000020F8B5074653
:10140000104E0125BD403068FFF778FB00280DD154
:101410000D4C2069284207D1384600F0E9FB00282E
:10142000E06804D0284303E0A8432061F8BDA84346
:10143000E0602069002228432061A1683068FFF73E
:101440001FFBF8BDFC2400001C00002070B5204CE0
:101450000021E07E002800D02021A07E1025002859
:1014600000D02943607E0826002800D031431F2089
:1014700000F0F4FFA07D0021002802D0207E40076C
:10148000010EE07D042804D0082804D0102806D1DD
:1014900004E0294303E01820014300E031431C200D
:1014A0002056002804DB042280071143800F0143EB
:1014B000202000F0D3FF607F0021002804D0A17F0E
:1014C00080208907490E0143212000F0C7FF70BD2D
:1014D0005C05002070B52B4C00202179002902D03A
:1014E000207A4007000EE1880825FF39F53914D02D
:1014F000254AD14201D118210843617A8907890F11
:101500000143102000F0AAFF0021112000F0A6FFE7
:10151000A07A002803D0802102E02843EDE70021D3
:10152000E07A002804D0207B0007000F4030014300
:10153000122000F093FFE07C0021002800D0202141
:10154000A07C1026002800D03143607C002800D009
:101550002943207D002801D0022001431E2000F0F5
:101560007DFF607B0021002800D02021A07B002887
:1015700000D03143E07B002800D02943132000F045
:101580006DFF70BD5C05002024FAFFFF10B51C4CF8
:101590000021A078002800D08021E0788007400E4C
:1015A000084361784907C90E0143202000F060F923
:1015B00020780021082804D00C2804D0102805D158
:1015C00003E0202102E0402100E06021212000F022
:1015D0004FF961790020002900D02020A1798907E6
:1015E000890F0143222000F043F920798007010F81
:1015F000232000F03DF90021242000F039F910BD2E
:101600007C05002010B5074C607800F06FFC607816
:1016100000F09CFC207800F069FC207800F096FC3B
:1016200010BD00005000002070B50C46FF210931AC
:1016300000254550214600F06FFE002808D1A07912
:10164000FF2801D000F07AFC6571216800208847EE
:1016500070BD00001048018CC9B2012917D1818CDE
:10166000090714D1018D09060A0F03D1828D1206D4
:10167000120F0ED0090F012903D1828D1206120F0D
:1016800007D0032903D1808D0006000F01D0002070
:101690007047012070470000C00F00F010B50448EB
:1016A000017AC90702D00078FFF750FB10BD000097
:1016B00004000020F8B52C49C8680A690C780F7935
:1016C00089688646944600913EE00099E2005518EC
:1016D0002A7836E0182353436968521CC918AB783E
:1016E000D2B2934200D100220B78022B02D0032BFE
:1016F00027D123E04E680346014603E0B14204D0FF
:101700000B46C96900291CD0F8E7002919D08B4283
:1017100008D1C069002805D1144F0126BE600026FB
:10172000B44601270E68C969D961002909D00B6840
:101730009B190B6005E00174C06900E000210028DE
:10174000F9D169789142C5D12146641EE4B20029DD
:10175000BBD1054962460A61C8600F71704501D06E
:101760000120F8BD0020F8BD30000020001001402D
:10177000F8B5044631480026C168009107784EE06C
:101780002E48F90080680D1843E0002C02D0204656
:10179000E4691FE02878182141436A68401CC0B200
:1017A00051182870AA78904200D12E700A784868A3
:1017B000012A30D1027C002A2DD18A684260CA6891
:1017C00082600A69C260496981611C4909790029FE
:1017D00000D04660194943680A699C46991A090273
:1017E000174B090A994202D28268891807E06146BC
:1017F000511A09028268090A8A4202D9511A016003
:1018000000E006604660012186600174C66100F058
:1018100021FD002CB9D1287869788842BAD13846A0
:101820007F1EFFB20028ABD10448C16800988142F6
:1018300001D00120F8BD0020F8BD000030000020DC
:10184000FFFF7F00014610B502480078FEF7F0FE6A
:1018500010BD00005000002013460A46014610B596
:1018600002480078FEF7ECFE10BD0000500000209A
:101870000A46014610B502480078FEF719FF10BD70
:1018800050000020FFF7B4F9514808218170092168
:101890004170FEF771FEFEF79DFEFEF7EDFD0120A3
:1018A000FFF7DAFBFFF7D0FCFEF796FD494C4A4DF7
:1018B0004A4E4B4F7D20C00000F0BAF800F0C0FB4C
:1018C00000F09CFB00F0DEFB002000F023FC002178
:1018D000084600F019FC0022A25E42A14548FEF72E
:1018E00037FF4448FEF75AFCC1B24248FEF7F4FE07
:1018F0000022AA5E40A13F48FEF72AFF3D48FEF7BE
:101900004DFCC1B23B48FEF7E7FE0022B25E3AA1B1
:101910003848FEF71DFF3748FEF740FCC1B2354896
:10192000FEF7DAFE0022BA5E34A13248FEF710FF5D
:101930003048FEF733FCC1B22E48FEF7CDFE3348E7
:101940000022825E2CA12B48FEF702FF2948FEF7F9
:1019500025FCC1B22748FEF7BFFE2D480022825E5B
:1019600025A12448FEF7F4FE2248FEF717FCC1B279
:101970002048FEF7B1FE27480022825E26A11D48BE
:10198000FEF7E6FE1B48FEF709FCC1B21948FEF758
:10199000A3FE25480022825E17A11648FEF7D8FE56
:1019A0001448FEF7FBFBC1B21248FEF795FE1F4834
:1019B0000022825E10A10F48FEF7CAFE0D48FEF716
:1019C000EDFBC1B20B48FEF787FEFFF73DFC71E768
:1019D0005C05002054000020560000205800002024
:1019E0005A0000204779726F446174613A2025756E
:1019F0002C0000007C03002025752C0041636365EA
:101A000072446174613A2025752C00005C0000204E
:101A10005E000020600000204D6167446174613AFF
:101A20002025752C000000006200002064000020CA
:101A300031B5054C04E0401E00902046FEF74AFBFD
:101A400000980028F7D138BDE70300008207D30EC5
:101A5000FF229A408907090E10B5994000280BDA39
:101A600003071B0F083B9C080C4BA400E318DC6920
:101A700094430C43DC6107E08408094BA400E4189C
:101A8000236893430B432360C106C90E012088409D
:101A9000044908600449086010BD000000ED00E042
:101AA00000E400E080E200E000E100E0F3B581B096
:101AB0000F46019800F064FA012400281E4E019898
:101AC00017D0FFF7B1FA80192030007F8009032872
:101AD00002D0012806D007E01848006901998C401F
:101AE000204201D1022100E00321019800F00EFA0A
:101AF000FEBD00F051FA0028FAD00198FFF794FAE1
:101B000005468100C81D0E4AF93089180A6980B25D
:101B100022430A610B49401800210160002FE7D0E1
:101B20000198FFF781FA800030580028E0D006487D
:101B3000AC404460FEBD0000C4040020000500501D
:101B4000006500400060004000630040FEB50446B0
:101B500023480E460019202141560027C817134676
:101B6000401C01D0082738E0F27819462046FFF7DC
:101B700037FA0546401C2FD0B078002807D0194806
:101B8000A1000918086802229043086007E00021BC
:101B90007378204600910A46019100F079F9F078B7
:101BA000002810D01048AA001018317802690F4B95
:101BB0001A400261E206D20C8907890B0A430169C7
:101BC0000A43026109E00648327840192030017F5B
:101BD00092011143017700E004273846FEBD000062
:101BE000C40400200007005000650040FFE0FCFF37
:101BF00003490969C140C807C00F00D001207047E0
:101C00000005005070B5124D2879002801D0082039
:101C100070BD0F4900204039421E0B182033401C74
:101C2000C0B21A702028F8D300242046FFF7CAF962
:101C3000641CE4B2082CF8D303210620FFF706FF4A
:101C400001200449C007486001202871002070BDB0
:101C5000040500200063004002480079002800D0FD
:101C60000120704704050020FEB507460C46407968
:101C70001821424B4143CE183179002901D0082068
:101C8000FEBD002C02D13E49000144183260207B89
:101C900001250128207804D8294681403948C160AF
:101CA00001E000F04BF92178374A012089008918BA
:101CB00008606578FF2D06D03249A840C8602846E4
:101CC00000F00AF901E00025ED43A078FF2808D0D4
:101CD000002300931A4619460193029000F0EAF897
:101CE00002E00020C0430290E078FF2804D000F01A
:101CF00025F9E07800F0F0F87879182148431F4979
:101D0000E2784018827139680520000223780818AB
:101D1000029A8360C5600261A2684262627B237B93
:101D2000002A00D00122012B04D0022B04D0032B67
:101D300006D103E0022302E0042300E006231A4355
:101D400042657A7918235A430C4B6579D218D571BC
:101D50003268002A04D0032304221B02C9184A60F7
:101D6000012505603068002804D004202179385608
:101D7000FFF76CFE002070713571FEBD0C05002070
:101D8000DC2400000005005000070050F8B59C4618
:101D90004379182463432A4C069F1C196379002B4E
:101DA00001D01120F8BD13463B4346D0A57901264A
:101DB000FF2D03D03346AB40224DEB600568E16058
:101DC00022726046206167720020A0722368002B97
:101DD00005D06671032604233602AE19B360FF26D0
:101DE00009360020A851002A01D0087800E0E079E7
:101DF00005231B02EB18D861012A01D9487802E0BB
:101E0000012F01D9E079D8612068002805D003218D
:101E100004200902691848600FE00027A85900282B
:101E2000FCD0AF512146284600F076FA0028F5D1C3
:101E3000A079FF2801D000F081F80020F8BD000053
:101E40000C050020000500504179182251430E4A2C
:101E500089180A68002A06D00279D306DB0E01220F
:101E60009A400A4B1A600A680068002A05D00022CE
:101E70000323D2431B02C3189A60052300221B02CE
:101E8000C01802600A7170470C05002080E100E074
:101E900030B552000A439900039C0A432102049D75
:101EA0000A4329040A43024980004018026030BDF9
:101EB0000007005030B552000A439900039C0A43C2
:101EC0002102049D0A4329040A4302498000401864
:101ED000026030BD000700501CB5002100910B4688
:101EE000012201911146FFF7E5FF1CBD024A0321C3
:101EF000800080180160704700070050024A0321EB
:101F0000800080180160704700070050820006487A
:101F10001018026803231B049A4302600268090434
:101F20000A43026070470000000700500121814011
:101F30000148C16070470000000500500121814048
:101F40000148816070470000000500500121814078
:101F50000148816070470000000500500121814068
:101F60000148816070470000000500500349401897
:101F70000068012800D00020704700000060004089
:101F80000449081820214156042901DB012070472B
:101F900000207047C404002004490818202141563D
:101FA000042901D20120704700207047C40400209A
:101FB000F0B5402817D2002915DB302913DACD17E8
:101FC0006D0F6E18F508ED000124491B8C40F110CF
:101FD000094F89010818C019012B05D00178012A81
:101FE00007D0A1430170F0BD012AFCD10178614006
:101FF000F8E72143F6E70000C00000207CB5062288
:102000006946282000F01EFA694600240B480C5F40
:1020100044810223CB5E838104228A5EC28181785F
:1020200000290AD001462E310D88641B44814C885A
:102030001B1B83818988511AC1817CBD50000020FF
:102040007CB506226946182000F0FCF96946002498
:102050000B480C5F84800223CB5EC38004228A5E1F
:102060000281817800290AD0014628310D88641B3D
:1020700084804C881B1BC3808988511A01817CBDD8
:10208000500000201CB5062269462820FFF7E4FB1B
:10209000694605480988018269464988418269463E
:1020A000898881821CBD00005000002070B5012489
:1020B0000B49600408600B494010886009494039A9
:1020C0008860094D6C602F20FEF714F8AC60074D56
:1020D00000242F202C61FEF70DF8EC7070BD00007D
:1020E00080E100E04013014000100140300000207A
:1020F00010B5044600091230FEF7CCFF2007000F90
:10210000FEF7C8FF10BD0000014AD072117370477E
:102110009C000020042801D3002070470A49820057
:102120000872084614308058642302788A71427815
:10213000CA7182784A72C2788A72027940795A43A7
:102140001018C881012070479C00002010B5B021F4
:102150000843FEF79FFF10BD0EB5694608710120C8
:1021600002460090034802AB01A90069FFF70EFE8A
:102170000EBD00009C00002010B5002819D10D49AB
:102180006422881AFEF758FF00280BD00A48FFF790
:102190005BFE0A20FEF77CFD002807D00C20FEF72E
:1021A00077FDFEE70C20FEF773FDFEE703490120F3
:1021B000087010BDF403002070240000000000200F
:1021C000FEB51F4C00252769E06802906846FFF7BE
:1021D000F5F80190FFF76EFA06460198002822D024
:1021E00000230098E16817E00E680A46864202D98B
:1021F000301A086012E0801BF31800261660D668BB
:10220000D169B446002E07D0FE183602360A566051
:1022100066469660D56115460029E5D12846E160FD
:10222000FFF7A6FA06E02846FFF7A2FA002801D138
:10223000002E02D00298FEF743FF00202071FEBD61
:1022400030000020012002490005086070470000AE
:1022500000E200E010B50E4BD968002906D00268F4
:102260000C68A24204D8A21A0A60C161D86010BDED
:102270000B4604E00B46C969121B002904D00C6808
:102280009442F7D3A41A0C600260C161D86110BDFA
:1022900030000020F8B51E4DEC68002C36D01D48EB
:1022A000002740682969401A0602360A2068B042B1
:1022B0001AD8361AC7192246107CE469002811D0B2
:1022C000002010746B69002B09D091695069984700
:1022D000002807D000221146FEF770FB02E051698A
:1022E00090698847002CE1D16978A878814206D1AD
:1022F000401CC0B2A870022801D10020A870044977
:102300000006800D18310F50FFF79CFFF8BD00004C
:10231000300000200015014038B505221202831854
:1023200098696A461070887A4A7A904203D26A465F
:1023300012780C692254887A401CC2B28A720C7AD4
:10234000501C844202D9C968085C03E04D7A85427A
:1023500002D9C879D86103E0A24201D3AA4201D2CE
:10236000012038BD002038BD12494868C005C00DA5
:1023700019D0103840B2002807DA0207120F083AC5
:10238000920892005118C96904E081080A4A89003C
:10239000891809688007C00EC1400806800F01280F
:1023A00003D0032803D0022070470020704701208B
:1023B0007047000000ED00E000E400E04278837820
:1023C000521CD2B2934200D100220378934201D131
:1023D000002070470A70416840781822504308185E
:1023E0007047000038B5114C0025217B0A2819D010
:1023F0000D2815D06279009202462379E07AFEF723
:102400003DFFE07AA17940224018401CC0B2511A29
:10241000E072814204DA207BE17940182073E57292
:10242000012038BDE0790818F8E700009C00002082
:10243000014610B502484078FEF7FAF810BD0000DA
:102440005000002013460A46014610B50248407865
:10245000FEF7F6F810BD0000500000200A460146C5
:1024600010B502484078FEF723F910BD5000002057
:102470000030004003000000004000400401000064
:10248000000000FF03CC00000000008000000000FE
:10249000000000FF03CC00000000008000000000EE
:1024A0005804002078040020A4040020110000003B
:1024B00012000000130000001400000011000300CF
:1024C000510B000012000300510B00001300030029
:1024D000510B000014000300510B0000020304FF25
:1024E00003FF00000000004000000000020304FFA2
:1024F00003FF000000000040000000003C05002039
:1025000003000000050800FF0C4B00000000003E27
:102510005B4F5B3E3E6B4F6B3E1C3E7C3E1C183C53
:102520007E3C181C577D571C1C5E7F5E1C00183CAF
:102530001800FFE7C3E7FF0018241800FFE7DBE7F8
:10254000FF30483A060E2629792926407F050507DF
:10255000407F05253F5A3CE73C5A7F3E1C1C08083B
:102560001C1C3E7F14227F22145F5F005F5F060900
:102570007F017F006689956A606060606094A2FF59
:10258000A29408047E040810207E201008082A1C4B
:1025900008081C2A08081E101010100C1E0C1E0C17
:1025A00030383E3830060E3E0E06000000000000B7
:1025B000005F00000007000700147F147F14242A26
:1025C0007F2A1223130864623649562050000807F8
:1025D0000300001C2241000041221C002A1C7F1C19
:1025E0002A08083E0808008070300008080808081B
:1025F000000060600020100804023E5149453E0082
:10260000427F400072494949462141494D331814DF
:10261000127F1027454545393C4A4949314121112E
:1026200009073649494936464949291E0000140020
:102630000000403400000008142241141414141443
:10264000004122140802015909063E415D594E7CA1
:102650001211127C7F494949363E414141227F4156
:1026600041413E7F494949417F090909013E4141B4
:1026700051737F0808087F00417F41002040413F9F
:10268000017F081422417F404040407F021C027FAE
:102690007F0408107F3E4141413E7F090909063E03
:1026A0004151215E7F0919294626494949320301D2
:1026B0007F01033F4040403F1F2040201F3F4038E4
:1026C000403F631408146303047804036159494DBF
:1026D00043007F4141410204081020004141417FF5
:1026E000040201020440404040400003070800206B
:1026F000545478407F28444438384444442838446B
:1027000044287F385454541800087E090218A4A4A1
:102710009C787F0804047800447D40002040403DC0
:10272000007F1028440000417F40007C047804783A
:102730007C080404783844444438FC1824241818CD
:10274000242418FC7C080404084854545424040429
:102750003F44243C4040207C1C2040201C3C403016
:10276000403C44281028444C9090907C4464544C45
:1027700044000836410000007700000041360800A0
:1027800002010204023C2623263C1EA1A161123A4A
:102790004040207A38545455592155557941215497
:1027A000547841215554784020545579400C1E529C
:1027B0007212395555555939545454593955545440
:1027C000580000457C410002457D420001457C40A7
:1027D000F0292429F0F0282528F07C5455450020C4
:1027E00054547C547C0A097F493249494932324861
:1027F000484832324A4848303A4141217A3A4240C8
:102800002078009DA0A07D39444444393D4040409B
:102810003D3C24FF2424487E4943662B2FFC2F2B6C
:10282000FF0929F620C0887E09032054547941000D
:1028300000447D413048484A32384040227A007A8C
:102840000A0A727D0D19317D2629292F282629296A
:10285000292630484D40203808080808080808088C
:10286000382F10C8ACBA2F102834FA00007B0000B3
:1028700008142A142222142A1408AA005500AAAA0D
:1028800055AA55AA000000FF00101010FF001414F4
:1028900014FF001010FF00FF1010F010F0141414BB
:1028A000FC001414F700FF0000FF00FF1414F404F0
:1028B000FC141417101F10101F101F1414141F00E5
:1028C000101010F0000000001F101010101F10104A
:1028D0001010F010000000FF101010101010101059
:1028E00010FF10000000FF140000FF00FF00001F99
:1028F00010170000FC04F414141710171414F40437
:10290000F40000FF00F714141414141414F700F763
:10291000141414171410101F101F141414F414108E
:1029200010F010F000001F101F0000001F14000026
:1029300000FC140000F010F01010FF10FF1414142D
:10294000FF141010101F00000000F010FFFFFFFF29
:10295000FFF0F0F0F0F0FFFFFF0000000000FFFFCD
:102960000F0F0F0F0F38444438447C2A2A3E147E40
:1029700002020606027E027E026355494163384424
:10298000443C04407E201E2006027E020299A5E7F8
:10299000A5991C2A492A1C4C7201724C304A4D4D93
:1029A000303048784830BC625A463D3E494949007B
:1029B0007E0101017E2A2A2A2A2A44445F44444097
:1029C000514A444040444A51400000FF0103E08026
:1029D000FF000008086B6B083612362436060F0914
:1029E0000F06000018180000001010003040FF0112
:1029F00001001F01011E00191D1712003C3C3C3C48
:102A000000000000000810206002380000000000F4
:102A1000000000000000FE0000000000000E000E9C
:102A200000000000D0BE90D0BE9000001C62FFC22B
:102A30008000000C12924CB0880600807C62B21CB0
:102A4000C0000000000E0E0000000000E0180402AC
:102A50000200000002020418E000000024187E18A2
:102A6000240000808080F080808000000000000052
:102A70000000000080808080000000000000000056
:102A80000000000000806018060000F804C2320C4C
:102A9000F80000000404FE00000000000282422250
:102AA0001C00000002222222DC0000C0A09884FE4C
:102AB000808000001E121222C20000F8442222224E
:102AC000C00000000202C2320A0600008C522252EC
:102AD0008C00003C42424226F800000000303000EA
:102AE00000000000003030000000008080404020E6
:102AF0002010004040404040400000102020404056
:102B000080800000028242221C00000000000000C1
:102B100000000000000005000000000000000000B0
:102B200000000000070000070000000004040F047C
:102B30000300000402010304040300030404040569
:102B4000030400000000000000000000030608105D
:102B50001000000010100806030000000000000034
:102B600000000000000007000000000000160E003A
:102B70000000000000000000000000000006060049
:102B80000000000402010000000000010304040230
:102B9000010000000404070404000000070404040A
:102BA0000400000004040404030000000000000707
:102BB00000000000040404040300000102040404F3
:102BC00003000000000700000000000003040404EC
:102BD00003000000040404020100000000060600D7
:102BE0000000000000160E000000000000010102BD
:102BF00002040001010101010100000402020101BF
:102C00000000000000050000000000F804728AFACD
:102C100084780000C0380638C0000000FE2222225E
:102C2000DC0000F804020202020000FE02020204BC
:102C3000F8000000FE22222222000000FE222222B2
:102C4000220000F804020222E20000FE20202020E0
:102C5000FE0000000202FE0202000000000002026C
:102C6000FE0000FE40B0080402000000FE0000006C
:102C7000000000FE0C7080700CFE00FE0C30C000E6
:102C8000FE0000F804020204F80000FE4242422264
:102C90001C0000F804020204F8000000FE4242A2F8
:102CA0001C0000001C224242800000020202FE02C0
:102CB000020200FE00000000FE00000638C000C056
:102CC0003806003EC0F00EF0C03E00000698609846
:102CD000060000000618E0180600000202C2320AD0
:102CE0000600000000FE02020202000006186080DA
:102CF00000000002020202FE00000040300C0C3016
:102D00004000000000000000000000010204040474
:102D1000000000060101010101060000070404048F
:102D20000300000102040404040000070404040278
:102D30000100000007040404040000000700000074
:102D40000000000102040404070000070000000066
:102D50000700000004040704040000000404040445
:102D6000030000070000010204000000070404043F
:102D70000400000700000100000700070000000336
:102D80000700000102040402010000070000000027
:102D90000000000102040C121110000007000001E5
:102DA0000600000004040404030000000000070003
:102DB00000000003040404040300000000010601F5
:102DC00000000000070000000700000006010001ED
:102DD00006000000000007000000000605040404CF
:102DE00004000000001F101010100000000000017F
:102DF000020400101010101F00000000000000006E
:102E0000000000080808080808000000000204008C
:102E100000000000E0101010F0000000FE20101074
:102E2000E0000000E010101010000000E010101092
:102E3000FE000000E0909090E000000020FC2222C4
:102E400022020000E0101010F0000000FE20101020
:102E5000E000001010F2000000000000101010F25E
:102E600000000000FE804020100000000202FE0072
:102E7000000000F02010F02010F00000F0201010F2
:102E8000E0000000E0101010E0000000F020101042
:102E9000E0000000E0101010F0000000F020101022
:102EA0007000000060909090200000002020FC2026
:102EB00020200000F0000000F00000007080008082
:102EC000700000F000C030C000F0000030C0C03022
:102ED0000000000030C00080700000001010905012
:102EE0003000000080807E02020000000000FE0032
:102EF0000000000002027E80800000008080000050
:102F00000080000000000000000000000000000041
:102F1000000000000304040207000000070404048A
:102F2000030000000304040404000000030404027E
:102F30000700000003040404040000000007000070
:102F400000000000332424221F00000007000000BE
:102F50000700000000070404000000202020201FBC
:102F60000000000007000102040000000000070448
:102F70000400000700000700000700000700000031
:102F80000700000003040404030000003F040404DD
:102F900003000000030404023F00000007000000DB
:102FA0000000000002040404030000000000030409
:102FB00004040000030404020700000000030403EB
:102FC00000000001060100010601000006010106E3
:102FD0000000002020310E0300000000060504045C
:102FE0000400000000001F10100000000000070097
:102FF0000000000010101F0000000001000001018F
:1030000001000000000000000000000C30300B0147
:103010002000C0F87C3E3EFCF8C0000000000080AC
:10302000E078FEFE000000000000F07C3C3E3EFE2A
:10303000FCE0000000007C3E3E3EFEF8C0000000C8
:10304000000000000000F8FEFE0000000000FEFE90
:103050003E3E3E3E3E00000000000080F0FC3E3E52
:103060003EFC000000003E3E3E3E3E3E3EFEFE0078
:10307000000000C0F8FE3E7EFCE00000000000E022
:10308000FC7E3EFEF8C000000000000000C0E0C072
:103090000000000000F0FF0F000000F9FFFFF0004B
:1030A000000000070300FFFF000000000000010017
:1030B00000000000FFFF000000000000000000FF13
:1030C000FF00000000000000E0FF1FFFFF00000005
:1030D0000000FFFF00000000000000000000E0FF13
:1030E0003F0000000000000000000000000000C0E1
:1030F000FC7F0300000000FFFF000000FFFF000056
:103100000000FEFF03000000FFFFF00000000000D1
:10311000003F7F3F0000000000FFFF0000E0FF1FB6
:1031200000FFFF00000000000000FFFF00000000A3
:10313000000000000000E0FE1F010000000000F899
:10314000F8FCFFC7000000000000C0FE3F0300FFC6
:10315000FF00000000003F3F3E7EFCF8E000000062
:103160000000FFFF80F07C7CF8F000000000000011
:103170000080F8FF07000000000000019FFFF8FE3C
:103180001F0100000000FFFFC0000080FFFFFF00E4
:1031900000000000000000000000000000FFFFC071
:1031A000FC7F030000FFFF00000000000000FFFFA5
:1031B0000000000000000000E0FE0F010000000021
:1031C000000000000000010FFFF8000000F8FFE71A
:1031D000E0E0E0FFFFE0E0E00000000000000007AA
:1031E000FFFE00000000FFFFFF03000001FFFF00E3
:1031F00000000000F0FF0F00000000000000C0FC15
:103200003F03031FFFFCC0000000000F1F3E3E0FE6
:1032100001FFFF000000000000008000000000002F
:103220000007FFFF07000000FCFF07000000000090
:103230000000FFFF000000000000E0FE0F000000A3
:103240000000000000000000000000C0FF7F000040
:1032500000030303030303FFFF0303030000000055
:10326000000000C0FF7F000000000FFFFF80000093
:1032700080FF7F00000000FEFF0300000000000050
:103280000000FFFF8000000080FFFF000000000042
:1032900000000080FCFF07000000000000FFFFFFAF
:1032A000000000000000031F3F7C7C3F1F03000064
:1032B0000000007C7C7C7F7F7C7C7C0000007F7F2A
:1032C0007C7C7C7C7C7C000000003F7E7C7C7E1FC4
:1032D00007000000000000000000007F7F000000E9
:1032E00000001F3E7C7C3E1F070000000000000322
:1032F0001F7F7C7C3F0700000000007F7F000000F4
:10330000000000000000011F3F7E7C7E3F1F010087
:103310000000003E7C7C7E3F0F01000000000000AA
:103320000000010000000000000A102E0C01140033
:10333000000000000000000000000000000000008D
:1033400000000078FC020303030302FC7800000085
:103350000000000000FF7E0000028383838302FCE4
:10336000780000028383838302FC787EFF008080E4
:10337000808000FF7E78FC028383838302000078D4
:10338000FC02838383830200000002030303030320
:1033900002FC7878FC028383838302FC7878FC0249
:1033A0008383838302FC7800000060F0F0600000FB
:1033B00000000000000000000000001E3F40C0C0F0
:1033C000C0C0403F1E0000000000000000FF7E1C47
:1033D0003E41C1C1C1C1410000000041C1C1C1C1E4
:1033E000413E1C0000010101010101FF7E0000417E
:1033F000C1C1C1C1413E1C1C3E41C1C1C1C1413E10
:103400001C0000000000000000FF7E1C3E41C1C106
:10341000C1C1413E1C000041C1C1C1C1413E1C00AF
:103420004034000000000020440200007802000048
:10343000C034000044020020640B0000A20700001A
:10344000028B01180CF7CC1239240B98399F71E1CB
:10345000080314183A23042523052A232933031AC1
:103460000B304EE0F8FCFEFF01160F0707060603BF
:103470002780803A80015E81070F3F3F413DFEFE7D
:10348000FCFC4E041FFCF8E069752BF1E0015BF0D9
:10349000FD428901011FF93099010E267F3F1F0768
:1034A0000140192D5B1F0F010E1E07070703033A8A
:1034B000594019380B250F072D511324F400000033
:04000005000000C136
:00000001FF
